S00D00006D794578652E737265630F
S113000000600020093400000931000015310000AF
S113001015310000153100001531000015310000C4
S113002015310000153100001531000015310000B4
S113003015310000153100001531000015310000A4
S11300401531000015310000153100001531000094
S11300501531000015310000153100001531000084
S11300601531000015310000153100001531000074
S11300701531000015310000153100001531000064
S11300801531000015310000153100001531000054
S11300901531000015310000153100001531000044
S11300A015310000153100008947000015310000AA
S11300B0153100001531000015310000FD3000003D
S1130400FFFFFFFFFFFFFFFFFFFFFFFF7EFFFFFF79
S1130410F0B5C34B061C8000C5588BB02B781B0964
S1130420181C04380393C0B2012383428041404224
S1130430984000D008E29A4200D005E268787F2311
S1130440984300D144E20B88002B00D1A2E1B549C6
S11304508A5D171C002E04D0701EC0B20F5CD71B1F
S1130460FFB2D21BD2B20024012101E00134E4B274
S1130470181C20410842F9D0002102910691201C49
S1130480211C944607936346CA18A74BD2B29B5CBF
S1130490069A0493934203D8029A934205D807E03C
S11304A0049B201C06930C1C02E0049A081C029274
S11304B00B1C079A019000E00B1C0131C9B20E2BF2
S11304C004D9079201980F2907D909E0131C0B419D
S11304D001200342F0D001980792079B0B41D2D12F
S11304E0031B6246DBB2844201D9201AC3B2012B3A
S11304F00DD9781E2979834205D1039B052B02D19E
S11305004023994301E040231943297103E02B79E7
S113051040218B432B71297940230B4000218B42CE
S113052000D066E18C4207D10398052815D1791EC5
S11305300123C9B2079312E0791E8C4207D10398B4
S1130540B91E0793052806D0CBB2079303E0631CBA
S1130550DBB20793611EC9B201E00121079107983C
S11305608018C3B288180293C3B29C466E48029B9B
S1130570C05C6D4B049060461B5C029104996A4810
S1130580994201D9079B029302998B18DBB2C05C94
S1130590664907900868844661460220002904D011
S11305A0A218D2B2301C0121E047039A052A0FD1C8
S11305B0002C03D102997B1E994206D0029A002A8C
S11305C006D17B1E9C4203D101E03C1C00E0029753
S11305D00021022800D00CE1039B052B0AD1391C11
S11305E0534802F045F980B20490E879391C013887
S11305F0C0B20DE00491012F0ED0013FB9B24C48B6
S113060002F036F980B20490E879F9B20138C0B248
S113061002F02EF9C0B2059004990798069A029B3D
S113062048435100A34205D902F022F904994C43EE
S1130630041904E0049A544302F01AF9241A3D4BB5
S1130640A4B21B68002B04D0221C301C0121984743
S1130650041CEB792409A4B25C43374B6A461B683B
S11306602732240A1470002B06D00121301C98472D
S11306700021022800D0BCE02B790021DA098A424B
S113068009D1012119401C0705D5AA792B4B002A51
S113069000D16A799A55039CEB78052C1FD1E8792F
S11306A0059C471E3F1B6C462734BB420BDD22785A
S11306B09446059A944506D264460219013AD21A20
S11306C0D2B2012015E02478BC4208DD059A934299
S11306D005D21A18013A121BD2B2022009E06A4666
S11306E0273212789A4201D29A1A00E0D21AD2B270
S11306F000206C4627342478EC70002A40D02F79EF
S1130700FF093DD0A3423FD001281AD0022817D0B8
S11307101A1BD2B2A34213D2E21AD2B2012010E0C1
S11307205C64000060640000D0E0FF1FC06400004F
S1130730FF0F0000AC640000B464000004E1FF1F7C
S11307400020012318408301A8784024A0433F27B8
S113075018433A40B84380235B4202431A43AA70C9
S1130760AA795C4B002A03D16A79002A00D1FF22BE
S11307709A552B790224234206D02143C9B203E0BF
S1130780AB783F229343AB702A7980235B421343B7
S11307902B712EE0498800292BD04F4A1468002C75
S11307A003D0301C191C1A1CA0474C4B1B68002B8F
S11307B003D00021301C0A1C9847494B1B68002BAE
S11307C003D00021301C0A1C984769788B0604D595
S11307D0C906C90E301C01F049FBAA7829797F2388
S11307E019401340AB703B4B29710022C906C90F55
S11307F09A553848835D002B1AD1AC787F22271C88
S113080097432B79002F0CD022400424AA70234252
S113081001D02143C9B21C070AD56A792D4B9A55D8
S113082006E0934304D06B79082421438355C9B26D
S1130830081E4DD068784023184049D0294BB60093
S11308402878F358984736E0022A02D12879C0095B
S11308503EE0032A03D16878C006C00E38E0042ABB
S11308602BD14022EA711C4A002314686B70AB70D0
S1130870EB702B716B71AB719C4203D0301C191C53
S11308801A1CA047154B1B68002B03D00021301CF9
S11308900A1C9847124B1B68002B03D00021301C04
S11308A00A1C98476B782020184011D0D906C90E2D
S11308B0301C01F0DBFA00200AE0052A05D1687833
S11308C07F23984304D0042002E0062A00D1101CA0
S11308D00BB0F0BD04E1FF1FC0640000B46400006D
S11308E0AC6400005464000038B5124B8000C55855
S11308F0114BC3581C68012916D12388101C002BE6
S113090010D09A1AE97912B2CD00AA420AD26942E9
S11309108A4207D9094A11784B430131C01801F0C2
S1130920F5FF80B2208003E00020814200D12280C4
S113093038BDC0465C64000058640000A864000030
S1130940F8B51B4B8000C358171C5C68DE6801298E
S113095028D1184B20781D78291C01F0CDFFC9B28D
S113096071180B783A780A703B7022786B00013B5F
S11309709A4210DA6B1E9A4209D17319013B197815
S1130980002302E0F1540133DBB29342FADB237813
S11309900133237000E025702078A842AD416842FD
S11309A0023003E00020814200D12070F8BDC0462F
S11309B058640000B064000008B5084B185C5B5C28
S11309C06421C018064B40081B785BB2584380B2C0
S11309D001F04EFF0230C0B208BDC046A8E0FF1FC0
S11309E0B9640000F7B5304C800000598468076989
S11309F0012948D12D498E5CC95C01916578281E76
S1130A003CD00221019861566DB2091AAD1B4919F7
S1130A1089B208B27E2802DC7E3002DB02E07F214C
S1130A2000E0234920783954224821780078814213
S1130A3001D2013100E00021217000210D1C9C46EF
S1130A4003E07B5601315D19ADB2CBB28342F8D3DA
S1130A5019490F68002F04D0101C6146B847C3B26F
S1130A6001E0164B1B785BB22DB20320AB4205DBD1
S1130A705B42E917DA0F9D425141401A6A461279E6
S1130A806670A2700FE0002081420CD1094B1A78E5
S1130A900B1C01E07B540131CDB200209542F9D307
S1130AA020706070A070FEBD58640000D0E0FF1F8D
S1130AB081FF0000B8640000BC640000B964000059
S1130AC070B50607394B360F141CB200D558F02305
S1130AD01840031C503B5A425341402802D0362050
S1130AE0002B62D0332000295FD0012919D1E306FD
S1130AF001D120239C432021214002D1301C01F04C
S1130B00B5F940231C4205D0294AB600B258002A40
S1130B1000D19C432B79002B01D17F231C406C70A6
S1130B2042E0022941D003293FD004291DD11F23CB
S1130B301C40221C08231A4006D00C4202D06A79B9
S1130B40002A0CD19C4304E01A4B995DFF2900D084
S1130B509A55002C03D16A787F2313406B702B794C
S1130B603F2293431C432C711EE005290CD1002C19
S1130B7008D12B79082293432B710E4B9A5DFF2ADF
S1130B8000D09C556C710FE0062901D1AC710BE0CB
S1130B903220072909D13520002B02D0022C04D998
S1130BA001E0012C01D9EC71002070BD5C640000EF
S1130BB05464000004E1FF1F00B50007034B800EDE
S1130BC0C3583220072900D8585C00BD5C6400007B
S1130BD000B57F23984204DC021C81237F3200DBB2
S1130BE0C3B258B200BD70B51E4B041C1B68002B69
S1130BF003D01D4B4200D3569BB21C4A1268002AF4
S1130C0008D0062161431A4A8A5619B2914200DA81
S1130C10131C9BB2174D1EB229576000164A8E4210
S1130C2005DB2B55154B00195B78135411E00019A3
S1130C30165C002E02D0013E16540AE0081C4843FC
S1130C401B1818B2013101F061FE00B2FFF7C0FFBA
S1130C5028550A4B1A78074B51B21857884200DAC4
S1130C601A5570BDE8640000C8E0FF1FEC64000082
S1130C702CE1FF1F28E1FF1F38E1FF1FF86400008B
S1130C8010B50B88C01A04B27F3401DA7F204042C9
S1130C9004B27F2C00DD7F2004B2944201DD0133D5
S1130CA004E052420020944202DA013B0B80062009
S1130CB010BD10B50B785CB2001B04B27F3401DAAE
S1130CC07F20404204B27F2C00DD7F2004B2944296
S1130CD001DD013304E052420020944202DA013B78
S1130CE00B70062010BD10B5124A031C515C7F2204
S1130CF00A407F2A1CD01049C978CC0708D50F496F
S1130D00895C022904D10E4B9B5CC01A80B20FE0AF
S1130D100C490D485200515A125A914201D98A1A6B
S1130D2000E0521A92B20020934201D99B1A98B261
S1130D3010BDC04658E1FF1FB0E0FF1F40E1FF1F98
S1130D40A8E0FF1FDCE0FF1F50E1FF1F024B400043
S1130D501A88024BC252704794E1FF1FDCE0FF1F68
S1130D6010B5034C011C208802F06CFB208010BDE0
S1130D7094E1FF1F10B5034C011C2088FFF7B3FF5B
S1130D80208010BD94E1FF1F10B5044C044A238851
S1130D90115C181C01F0BAFD208010BD94E1FF1F06
S1130DA0CCE0FF1F70B5084B084D1C5C0848211CA3
S1130DB02E8801F05DFD864203D901235B422B801E
S1130DC001E074432C8070BDC0E0FF1F94E1FF1F5D
S1130DD0FFFF0000F7B5784B041C5D790E1C022759
S1130DE0002D00D0EFB2201C00F032FD012E0AD1FC
S1130DF0724B1B78002B00D1D5E0714B1A578242FD
S1130E0000DBD0E09FE0022E0DD16E4B1A578242D8
S1130E1000DA1855201CFFF7E6FE63001C196A4B24
S1130E200022E254BFE0032E00D08EE0201CFFF726
S1130E30DAFE644B654A185D00282ED0115740B283
S1130E400918C80F41184910C9B2115500221A5582
S1130E50594F5B4B019104201B5738565843FFF7F9
S1130E60B7FE6B46061C04201856B0420FDB032164
S1130E707956801B01F04AFD801900B2FFF7A8FEE5
S1130E80514A63001B19D3185870BA7819E06300EB
S1130E904D4A1B19D3185E7014E04B4863001B19AC
S1130EA0C318115D01269E5748B286420ADA987823
S1130EB0002802D00138987004E0013911553E4AE7
S1130EC092789A703E4A3C490420125708563F4E85
S1130ED050433357834203DA00B2FFF779FE3055AB
S1130EE0002D10D13A4B03251B78002B0BD0201C6E
S1130EF000F070FA374B8200D358002B03D0002146
S1130F0006229847051C2E4B291C1F5D2F4B7EB2D1
S1130F101857801B01F0FAFC801900B2FFF758FE45
S1130F20B04201DC0137F8B22B4B42B21B5D9A424E
S1130F3008DA5900CB18D318D817800FC3189810A3
S1130F40FFF746FE244B18552DE0042E2BD11B4AE7
S1130F501B4B1278002A02D1174A12781A551E4DDB
S1130F602A5D002A07D1144A04201B5710565843FF
S1130F70FFF72EFE2855184B7FB2185D104B1B57F8
S1130F80C01A4743FB1818B2FFF722FE0F4B0D4A55
S1130F9018550023135561000B4A0C1911197F20B1
S1130FA048708B70A3540D4B1B68002B01D001209B
S1130FB098470020FEBDC046F8640000F1640000BC
S1130FC028E1FF1FC4E0FF1F38E1FF1FACE0FF1F53
S1130FD07564000064640000A8E0FF1F8C640000D6
S1130FE0F0B589B0051C0591062A13D1514A450074
S1130FF05519514B514A1B7810786B70584350491E
S1131000002300B2812201E0CA5401331CB284429D
S1131010FADB8BE0052A00D088E0464A43004649C3
S1131020D3185A780F78BA4200D37DE0434B1C782A
S113103044434348821813577F3362D07E08A31970
S11310400021C0180A1C00900B1CA4460AE03C486E
S1131050041C6444E45600986118C45689B2A2186A
S113106092B20133B342F2DB89B2521A7F23049164
S11310703448B90806910193002113B264460090E4
S1131080029107932EE0069A0399079B881A584306
S1131090311C01F03BFC0499081800B2311C01F02A
S11310A035FC274A039913195B566946C01A80B266
S11310B002B2944600228A5E031C944501DA6A4611
S11310C0138869469BB2043100930023CB5E02B2BD
S11310D09A4201DD6A469088029B80B201339BB23A
S11310E00190029368460821085E0390B842CADB67
S11310F0009A019BD01A00B2FFF76AFD0D4B6A00FB
S1131100D0540C4B0E4A69000598591814194978A3
S113111082227F3002D06A461420825C6D006254C1
S11311205B195A78013200E000225A70002009B09D
S1131130F0BDC046C8E0FF1FF26400007464000004
S113114000E1FF1F81FF0000F7B50C1C062A08D13F
S11311505043194B8CB21A18548094800022C25404
S113116027E0052A25D106264643134F134BBD1904
S11311706988019100215956114B019A1B78A8885E
S11311805BB24A4358431018C918001900B2013120
S113119001F0BCFB6A4683B292886B801BB2AA80C2
S11311A0181BA34200DCE01A400000B2FFF710FD58
S11311B0F0550020FEBDC0462CE1FF1FF364000083
S11311C0F464000000B5084A084BD178880607D5B6
S11311D01978002901D192791A701A78013A00E03D
S11311E092791A7000BDC046B0E0FF1F34E0FF1FC3
S11311F010B5072404400123A340084ADCB2C30805
S1131200011CD05C204207D0A043D054044B1B687F
S1131210002B01D00420984710BDC04620E1FF1FD9
S11312206C64000000B50223062808D008230528B2
S113123005D00423072802D0431E58424341181CFA
S113124000BD044A00231354034A1354034A13549D
S11312507047C0461CE1FF1F0CE1FF1F60E1FF1F48
S113126010B5041CFFF7EDFF034B00221A55034B86
S113127004221A5510BDC04618E1FF1F40E1FF1FAC
S113128010B50E4A00234400A352191C0C4A0D4BFE
S113129014781B780C4A1C1914540C4A0524145451
S11312A00B4A1268002A07D00A4A1154002B03D0B3
S11312B0094B1A78094B1A5410BDC04650E1FF1F60
S11312C0F0640000F16400001CE1FF1F40E1FF1F17
S11312D0E4640000C4E0FF1FF864000028E1FF1F7D
S11312E0F8B5041C03250727031C3B4001229A4040
S11312F0131C1B49C208D2B28A5C1A420AD0194B89
S11313001B5C043B012B02D8022D02D102E0022512
S113131000E00425144E83009B5904219847A04201
S1131320E2D10127042D13D1A3009B59201C0321D2
S11313309847071C02280BD1251C281CFFF7A0FF87
S1131340AB00281C9B5904219847051CA042F4D1EA
S1131350064B1B68002B01D002209847381CF8BDAF
S113136048E1FF1F40E1FF1F28650000986400006A
S113137008B5FFF7B5FF431E5A1E93415B42184060
S113138008BDF8B5002407260127231C33403A1C66
S11313909A40131C0C49E208D2B28A5C1A420CD05F
S11313A0201CFFF79DFF094D00E0041CA3005B59BE
S11313B0201C04219847A042F7D8054B01341B7820
S11313C0E4B2A342E1D1F8BD48E1FF1F2865000063
S11313D07464000030B5084B08491C78002305E00C
S11313E001335D18013D2D78854202D8DAB2A2425C
S11313F0F6D3101C30BDC046756400006064000064
S113140070B5061C0C1CFFF7E5FF051C012C16D15A
S1131410002E03D0134B1B5CB34210D107222A4089
S1131420012393401A1C1049EB08DBB2CB5C1A4031
S11314300E4B03D05A5D002A01D0013A5A550C4B89
S1131440AA00D3581024002B0AD0281C00210522FE
S11314509847042804D1054B5C5D002C00D010246F
S1131460201C70BD60640000D4E0FF1F24E1FF1F56
S11314706464000008B5064B1B68002B00D0984735
S1131480012003F053FA034B00221A705A7008BD6E
S1131490A464000034E0FF1F10B5074B0749187817
S11314A000231A1C5C1801332270DCB28442F9D385
S11314B0034B01221A7010BD7664000010E1FF1F77
S11314C000E0FF1F00B5044B002901DD195401E0C1
S11314D000221A5400BDC046D0E0FF1F024B40005A
S11314E01A88024BC252704794E1FF1F14E1FF1F98
S11314F030B50E4AD378DC0617D50D4C235C013386
S1131500DBB22354127A9A420FD10725094A0540C7
S11315100124C308AC40251CD45C4000AC43D45423
S1131520054BC9B2C25A8918C15230BDB0E0FF1F81
S1131530A4E0FF1F20E1FF1F50E1FF1F014B002229
S11315401A547047A4E0FF1FF0B5061C87B00720AB
S1131550331C0291034001219940CBB20593F40856
S1131560694B04949D5D694B9F5D694B9B5D009342
S1131570684B9B5D0193042D03D06B426B41002BA0
S11315800DD0029952B20324914200DA89E000247A
S1131590019401240094271C251C052481E0510892
S11315A04C080394012D33D1029C013752B2FFB28F
S11315B0944206DB009A01930132D2B200920624CF
S11315C013E0019B06240133DBB20193022B0CD1FF
S11315D069460C22029C5356E50FDA17301CA342CD
S11315E05541FFF72EFEAD0003244B4BDB79BB4284
S11315F057D87A08BB08009CD31802259C423CDCCF
S1131600029C039904258C4200DD002503243BE061
S1131610022D09D1029A01248A4242DC0194271C3A
S113162000930325041C3CE0032D31D1029C0137B7
S1131630FFB28C4206DC019A00930132D2B20192CD
S113164008240BE0009B08240133DBB20093022B37
S113165004D1301CFFF7F5FD009D01242E4BDB79EE
S1131660BB421ED87A08BB08019CD3189C4206DDF5
S1131670029C03998C4205DC04252C1C04E0022501
S1131680012401E000250424301CFFF7DAFD08E002
S1131690029C03998C4202DC04252C1C01E01D1CD5
S11316A004241E4B1B68002B04D0012C02D1301CD7
S11316B0029998471A4B1B68002B03D0022C01D1C6
S11316C0301C9847631E012B05D80499154B5A5CAE
S11316D005990A4307E0E31E012B06D80499114B30
S11316E05A5C05998A4304995A54074B6A469D5596
S11316F0064B12789F55064B69469A550979054B56
S1131700201C995507B0F0BD40E1FF1F1CE1FF1FED
S11317100CE1FF1F60E1FF1FB0E0FF1FCC6400007D
S1131720D064000020E1FF1F38B5051C081C0C1C08
S1131730FFF750FE002805D0124B1B18013B1B7805
S1131740E41AE4B20123A3409CB240006B1EC0B271
S1131750012B04D80C4B4200D15A214306E0EB1E66
S1131760012B04D8084B4200D15AA143D152042D75
S113177001D0022D05D1044B01304000C25A14435C
S1131780C45238BD6064000054E1FF1F10B5041C4E
S11317900B1E01DA4B42DBB2194A105D01301055C1
S11317A0184AD8B2125D184B904207D3002905DAC3
S11317B0164A115D01311155002201E01A5D013212
S11317C01A55114B1B5D022B02D1201CFFF748FD5B
S11317D00B4B0F4A1B5DD279520893420ED30B4A2E
S11317E05908125D9B08CB189A4204DD094B62002C
S11317F01988094BD152201CFFF732FD10BDC04699
S11318001CE1FF1FA8E0FF1F0CE1FF1F60E1FF1FA9
S1131810B0E0FF1F94E1FF1F50E1FF1F10B5002946
S113182004DD094B4200D45A013405E0002904D0F8
S1131830054B4200D45A013CD452044B1B68002B84
S113184000D0984710BDC04650E1FF1FD46400008B
S113185000B50C4B4000C25A0B4B1B88934203D972
S11318609A1A92B2012302E0D21A92B2FF23181CF0
S11318705043C0B27F2A02D9D801C31AD8B240B2A9
S113188000BDC04650E1FF1F94E1FF1FF7B58C4B2C
S1131890041C1B68002B00D098478A4B1B68002B44
S11318A001D0201C9847884B1B5D052B4DD1874BDD
S11318B09B78590700D501E1854B1A5D854B1B7850
S11318C09A420FD3844B6200D15A8448002901D133
S11318D0018805E04D000088691889B2411889081B
S11318E0D15206E07E4B1B68002B02D0201C012144
S11318F09847774B1A5D002A02D0013A1A55DDE069
S1131900784B1B68002B01D0201C9847201CFFF744
S1131910A7FC201CFFF76CFC714B1B68002B02D04A
S1131920201C04219847704B1B68002B03D0201CFB
S11319300021062298476D4B1B68002B00D1BDE0A7
S1131940201C002106229847B8E0694B1B68002B35
S113195001D0201C9847634B1B68002B01D0201C2E
S11319609847644B1E68002E01D0201CB047201CF1
S1131970FFF76EFF604B051C1B68002B02D0201C78
S1131980291C98475D4B1B68002B01D0201C9847ED
S1131990554B1B68002B03D0201C291C052298479B
S11319A0524B1B68002B03D0201C291C052298478E
S11319B04B4B1B68002B13D0002E07D0434AD27820
S11319C0D10703D54E4A125D7F2A09D83E4A201C0E
S11319D0125D042A02D00221002A00D10321984773
S11319E03A4B7F219A788A4301920CD0DA7A201CF0
S11319F0291CFFF7A9FD022860D1424B1B68002B6C
S1131A005CD098475AE0404B1B680093002B2BD0C6
S1131A103E4B1B78002B27D0201CFFF7DBFC3C4BF4
S1131A208200D658071C002E17D001990522B04712
S1131A30042808D1374B291C1A5D201CFFF784FDAC
S1131A40211C009A9047381C00210222B047461EF0
S1131A5073425E41764206400DE02E4B201C1A5D17
S1131A60291CFFF771FD06E02A4B201C1A5D291C76
S1131A70FFF76AFD00261F4B1B68002B06D0204B86
S1131A801B5D7F2B02D002231E43F6B2224B1B7830
S1131A90002B0BD1002E09D10C4BDB78990605D510
S1131AA0094B1B5D042B05D0002B03D0074B9B78FF
S1131AB0DA0703D5201C291CFFF7B0FEF7BDC0468A
S1131AC0E0640000DC64000040E1FF1FB0E0FF1FA1
S1131AD01CE1FF1FF164000050E1FF1F94E1FF1FB0
S1131AE0E464000080640000E8640000EC6400002A
S1131AF0786400007C640000846400008864000052
S1131B0058E1FF1FC46400006C64000075640000A9
S1131B1064640000A8E0FF1F34E0FF1FF8B55D4DCA
S1131B206B78002B1BD1AB705B4B5C4C1B78012B8F
S1131B300DD1FFF747FB2368002B0FD002209847F5
S1131B40E87008280BD1AB781843A87007E0236825
S1131B50002B03D001209847E87000E0EB70687810
S1131B60072601220640131CB340DEB24C4BC508C5
S1131B701B68002B04D0484A1178984742424241DE
S1131B80484B595D0123314206D04749495D3140F4
S1131B90484241410A40534044493E4A8878C0097A
S1131BA004D050788B7A98425CD101E0002B59D153
S1131BB050783F4B8100CB58002B53D0D278002A69
S1131BC005D1354A11789847041C012805D1314BB9
S1131BD001219A780A439A7044E0334B5A5D3243A8
S1131BE05A55324B7F229B7893435A4253415B426E
S1131BF01C40E31EDBB2012B07D82E4B1B68002BC5
S1131C0005D0244A50789847041C002C04D1214B59
S1131C105878FFF73BFE25E0A31FDBB21D4F012BD5
S1131C201AD8204B78785A5D0521B2435A55204B77
S1131C308200D35898471F4B1B68002B01D078783B
S1131C409847144D6878FFF7D3FA201CFFF7EAFA97
S1131C50697800F07DFA05E0201CFFF7E3FABD780F
S1131C600543BD700B4B14485A7800780132D2B248
S1131C7001245A70211C90420AD89C7800225A7080
S1131C800C4203D0044B02221A7001E0FFF704FC5B
S1131C90201CF8BD34E0FF1F00E0FF1F9864000023
S1131CA07064000048E1FF1F10E1FF1FB0E0FF1F58
S1131CB028650000D864000074640000F0B50020BA
S1131CC085B0604E0090071C041C002C16D15E49A0
S1131CD00B78012B0CD1FFF775FA3368002B0DD06C
S1131CE0022098470090082808D10743FFB205E076
S1131CF03368002B02D0012098470090072301226B
S1131D002340101C9840C3B20293504BE1081B6857
S1131D100191002B05D04C4A201C1178984742426F
S1131D2042414B4B19784B4B002902D1D978880694
S1131D3004D499780123194202D102E0012200E07F
S1131D401A1C454B0198195C02980123014208D0E2
S1131D5001984249095C02980140484241410A40C5
S1131D6053403C4A9178C90903D0937AA34257D18E
S1131D7001E0002B54D13A4BA200D2580392002A1E
S1131D804ED00099002906D12F4B201C197890477A
S1131D90051C012802D101231F4341E02F4B019868
S1131DA002991A5C0A431A542A4B7F229B78934364
S1131DB05A4253415B421D40EB1EDBB2012B06D855
S1131DC0284B1B68002B04D0201C9847051C002DB1
S1131DD003D1201CFFF75AFD22E0AB1FDBB2012B1D
S1131DE019D81D4B019802991A5C8A431A5405218B
S1131DF0201C039A90471B4B1B68002B01D0201C0E
S1131E009847201CFFF7F4F9281CFFF70BFA211C54
S1131E1000F09EF904E0281CFFF704FA0743FFB220
S1131E20114B01341B78E4B2A34200D94DE7FB0700
S1131E3003D5054B02221A7001E0FFF72DFB381C75
S1131E4005B0F0BD9864000000E0FF1F706400005E
S1131E5034E0FF1FB0E0FF1F48E1FF1F10E1FF1F48
S1131E6028650000D86400007464000030B50724BD
S1131E70C20804400125074BD2B2A540002902D173
S1131E809C5CAC4302E02C1C9D5C2C439C54024B98
S1131E90195430BDD4E0FF1F24E1FF1F70B50E4B71
S1131EA00E4A1D680E4B7F201C780023191C002D40
S1131EB002D0D618317000E0D0540133DEB2A6420D
S1131EC0F5D3084B08491878FF220023CA5401337C
S1131ED0DCB28442FAD370BDE4640000A8E0FF1FC2
S1131EE0746400007664000048E1FF1F70B5224D61
S1131EF0224E0024201CFFF7B3F92B68002B01D0DD
S1131F00201C9847201CFFF7BBF901343378E4B256
S1131F10A342EFD81A4B1B481A7800235400191C0B
S1131F205D000133DBB22952A342F9D30023164DDD
S1131F301648FF24191C1E18EC5401333170DEB20C
S1131F409642F8D3124B1349187800231A1C5C18D4
S1131F5001332270DCB28442F9D30F4B0F49187855
S1131F6000231A1C5C1801332270DCB28442F9D3BA
S1131F70FFF792FA70BDC046D0640000746400009C
S1131F807564000054E1FF1F04E1FF1F24E1FF1FFB
S1131F9077640000D4E0FF1F7664000020E1FF1F97
S1131FA070B51B4B08225A7164229A710422DA71AB
S1131FB00F225A723F22DA72FF2200245A7301223E
S1131FC01C705C801C711C729C721A73FFF78EFF6C
S1131FD0FFF764FF0F4B104E1D7809E0A3009B59D7
S1131FE0002B03D0201C0021042298470134E4B2C2
S1131FF0A542F3D8094B1B68002B01D00120984758
S1132000FFF738FA2023184000D0022070BDC046E4
S1132010B0E0FF1F75640000646400008C6400007D
S113202038B503283BD000231F491A1C5C18A47838
S113203001331219D2B20C2BF8D11C4B1C491C7859
S1132040002303E0CD5C01335219D2B2DDB2A542C4
S1132050F8D3184B18491C78002303E0CD5C0133F6
S11320605219D2B2DDB2A542F8D3144B022813D1CF
S113207019780023914214D00B4B04211A780A4397
S1132080D9781A707F220A40DA700D4B1B68002B36
S113209007D0FF20984700E01A70002301E0074BA7
S11320A01B78181C38BDC046B0E0FF1F74640000E4
S11320B0A8E0FF1F7664000048E1FF1FA6E0FF1FB1
S11320C0A0640000F8B51C4B00241C4D1F7830E0C0
S11320D00723234001229A40D3B22A88002A04D03D
S11320E01749E208885C98438854164E315D0029EC
S11320F00BD11348E208825C1A4206D0124BA200AC
S1132100D358201C032298473055104B1A5DFF2AE0
S113211001D0013A1A550C4BA200D358002B03D01E
S1132120201C291C01229847002301346B80E4B24F
S11321300435A742CCD8F8BD7564000054E1FF1FF4
S1132140D4E0FF1F24E1FF1F6464000004E1FF1FCB
S113215010B5031C134A980703D5107801242043B3
S11321601070580703D510780224204310700824F7
S11321700C4A234206D01378D0781C437F230340B3
S11321801470D3701378002B0BD0074B1B68002BF3
S113219001D0081C9847054B1B68002B01D0012077
S11321A0984710BDB0E0FF1FA06400008C640000DD
S11321B000B5124A031C117B03220A400020022AA4
S11321C01AD1032B05D10E4B1A787E2A14D801326A
S11321D011E0012B05D10A4B1878434258414001C4
S11321E00AE0022B08D1064B01201A789042804164
S11321F04042C00000221A7000BDC046B0E0FF1F7C
S113220038E0FF1FF8B51F4B1D68002D01D00220D8
S1132210A8471D4B00275A881C4B1A4080231B02D9
S11322209A4224D1FFF74AFDFE23041C071C1842DE
S113223002D0FF21FFF78CFF01231C4217D1124C5F
S1132240A2781A4201D09A43A270A378042633429A
S113225004D0FFF796F8A378B343A370002D01D000
S11322600120A8470A4B1B68002B00D09847012087
S11322703C1C044005D1074B1868002801D0804756
S1132280201CF8BD8C640000B0E0FF1F4080FFFFFD
S11322906864000090640000F8B51F4B1D68002DB1
S11322A001D00220A8471D4B00275A881C4B1A4016
S11322B080231B029A4224D1FFF730FCFE23041C26
S11322C0071C184202D0FF21FFF742FF01231C42E2
S11322D017D1124CA2781A4201D09A43A270A37863
S11322E00426334204D0FFF74CF8A378B343A37019
S11322F0002D01D00120A8470A4B1B68002B00D0F9
S1132300984701203C1C044005D1074B186800285D
S113231001D08047201CF8BD8C640000B0E0FF1F92
S11323204080FFFF6864000090640000014B80005F
S1132330C15070475CE1FF1F014B8000C0587047DB
S11323405CE1FF1F014B8000C05870475C640000D3
S113235000B5064B002801D1187805E01A5C013855
S1132360C0B21B5CD01AC0B200BDC046606400009D
S113237000B5002803D00138014BC0B2185C00BD81
S113238060640000024B185C0138C0B27047C0465C
S11323906064000070B5041C0B2829D1072529406E
S11323A004200E1C06401A4B0325002E0ED01B7B66
S11323B000242B40022B14D1052002F0B7FA154B50
S11323C0041C1B68281C984780200BE01C7B4C4095
S11323D02C4006D00D401D7302F0A8FA041C301CDA
S11323E000E0201C0C231C4210D1072318430DE0ED
S11323F000200C2C0AD1064B0420597302F096FAE3
S1132400044063425C4107206442204070BDC046E2
S1132410B0E0FF1F9864000070B5031C08280BD1BE
S113242004200F2955D82B4B0620597202F07EFA4E
S11324300123034005200FE0092812D1264B042074
S11324401B78013B994244D8224B9972062002F032
S11324506DFA0223034006205A4253415B4218405E
S113246037E00A2805D10420002932D0194BD9724B
S1132470ECE70020012B2CD1164A40239078450626
S1132480ED0FAD014D401D402E1E07D0984319405D
S113249001439170022002F049FA061C0D4CA37806
S11324A09A085B06DB0F1A4206D0082002F03EFAB7
S11324B0A37804229343A370281E0AD0072002F0B5
S11324C035FA012306431E4073425E4105207642DD
S11324D0304070BDB0E0FF1F7464000038B5114C8B
S11324E0C009A378DA0982421AD07F25C0012B40A3
S11324F00343A370022002F019FA082002F016FA2E
S1132500FFF7F4FCA378AB430AD0074BA07A1988F1
S1132510064B4200D152064B1B68002B00D0984753
S1132520002038BDB0E0FF1F94E1FF1F50E1FF1F02
S11325308064000070B5CDB20C2800D9BAE0824B9B
S1132540002815D10F221B7815400122134200D117
S113255095430222134200D195430422134200D131
S113256095430822134200D19543774B1D70C9E06F
S1132570012862D198780422104204D10C1C144022
S113258090432043987098780122104204D12C1C67
S113259014409043204398706B4B9879DA78002864
S11325A002D12020824305E08804C00F202440018A
S11325B0A2430243DA70644B187ADA78002802D115
S11325C01020824305E0C804C00F10240001A24378
S11325D00243DA705C4B02209E780C1C8643044054
S11325E0301C204301228C0B9870D878402614406C
S11325F0A401B04320437F24CE0B20408024944088
S1132600F601214030430C1290432043D8704F48C8
S11326100068002804D1002902D0D9789143D970E8
S11326204B4B1B68002B01D0281C9847494B0524B1
S11326301B680120002B39D170E0042808D16A1EE0
S1132640041C1F2A6AD85D71032002F06FF959E057
S1132650052807D1002D03D1DA7820218A43DA70C6
S11326609D714FE0062805D16A1E04241F2A55D8FF
S1132670DD7147E0072807D1002D03D1DA78102156
S11326808A43DA701D723DE0031C083B022B03D819
S1132690304B05241B6807E0031C0B3B0024012B73
S11326A03CD82D4B07241B68002B37D0291C984796
S11326B0041C33E0294B1B781A1C0D32904208D2BB
S11326C0AB1E04247D2B29D8254B18180D38057012
S11326D018E0244A11785A18141C0D34A04213D25D
S11326E00D225242D31A204A1018C554022002F077
S11326F01DF91E4B1C68002C10D0134B04219A7832
S11327000A439A70002409E00B1C0D339B18032420
S1132710984203D3C01A431E9841241A0A4B02213B
S11327209A780A4206D08A439A70FFF739FC022845
S113273000D109240E4B1B68220603D4002B01D0C0
S113274001209847201C70BDB0E0FF1F7C6400008E
S1132750C86400009C640000946400007464000079
S1132760A8E0FF1F7664000048E1FF1FD864000062
S11327708C64000010B5031E01D12B4B31E0012BFA
S113278021D1294BDA789B785106D009C90F8903E6
S1132790C0030843D907C90FC9B208439106C90F3A
S11327A0D2064903D20F08431203D9091043C901C1
S11327B008434021194008430421194002220843D8
S11327C0134018432EE00C2B02D8184AD05C29E0A1
S11327D0174A11780A1C0D32934204D2154AD318B1
S11327E00D3B18781EE0144A10780A18141C0D3496
S11327F0A34206D20D225242511A104AD318585CF1
S113280010E0011C0D3189188B4202D29B1A0C4A2C
S1132810E5E702208B4205D10A4B1B68002B01D04F
S11328200320984710BDC046B0E0FF1FB1E0FF1F72
S113283074640000A8E0FF1F7664000048E1FF1FF5
S113284020E1FF1F8C64000002B47146490849006E
S1132850095649008E4402BC7047C04602B4714612
S113286049084900095C49008E4402BC7047C046CF
S1132870002934D00123002210B488422CD301242F
S11328802407A14204D2814202D209011B01F8E7C4
S1132890E400A14204D2814202D249005B00F8E77D
S11328A0884201D3401A1A434C08A04202D3001BA9
S11328B05C0822438C08A04202D3001B9C082243DC
S11328C0CC08A04202D3001BDC082243002803D01A
S11328D01B0901D00909E3E7101C10BC704700284C
S11328E001D00020C04307B4024802A1401802905E
S11328F003BDC046D90000000029F0D003B5FFF79E
S1132900B9FF0EBC4243891A1847C046002941D07A
S113291010B4041C4C40A44601230022002900D515
S11329204942002800D5404288422CD30124240780
S1132930A14204D2814202D209011B01F8E7E4005A
S1132940A14204D2814202D249005B00F8E78842E6
S113295001D3401A1A434C08A04202D3001B5C085E
S113296022438C08A04202D3001B9C082243CC08BB
S1132970A04202D3001BDC082243002803D01B0919
S113298001D00909E3E7101C6446002C00D540423D
S113299010BC7047002806D003DB0020C043400869
S11329A001E08020000607B4024802A1401802900A
S11329B003BDC046190000000029EBD003B5FFF7A2
S11329C0A7FF0EBC4243891A1847C0467047C04649
S11329D080B500AF034B034A526908218A435A6108
S11329E0BD4680BD80F00F4080B584B000AF7860F4
S11329F0584BFB60FB687A681A60574A5649574B34
S1132A00CB58802109031943544BD150544B544A99
S1132A10126880218A431A60524B524A516C524ABE
S1132A200A405A64514B514A516D4F4A0A405A6503
S1132A304E4B4E4AD1694C4A0A40DA614B4B4B4AE1
S1132A40116A494A0A401A62494B494A5169464A3D
S1132A500A405A61434B434A916C434A0A409A6480
S1132A60424B424A916A404A0A409A623F4B3F4A6B
S1132A70D16A3D4A0A40DA623E4B3E4A11683A4AFC
S1132A800A401A603A4B3A4A1169374A0A401A61B5
S1132A90364B364AD16D344A0A40DA65334B334AF1
S1132AA0916D314A0A409A652D4B334A1A602C4B7A
S1132AB0802212025A602A4B304A1A61284B304A4B
S1132AC05A61274B2F4A9A61254B2F4ADA61244BCE
S1132AD000221A62224B8022D2045A62204B2B4AD3
S1132AE09A621F4B0022DA621D4B802292001A6305
S1132AF01B4B00225A631A4B00229A63184B002284
S1132B00DA63174B00221A64154B214A5A64144B9A
S1132B1000229A64124B0022DA64114B00221A65D7
S1132B200F4B802252015A650D4B00229A650C4BC3
S1132B300022DA650A4B0A4A1168164A0A408021C3
S1132B400A431A60144BFA689A60FB68181CBD4665
S1132B5004B080BD3CE0FF1F00700440381000004A
S1132B600030054000B00440FFF8FFFE00A0044020
S1132B7000D0044000C004406704B000800D0E0083
S1132B8060013000800D02006000200008004080D9
S1132B90000120007FFFFBFF54E0FF1FB0B584B0AD
S1132BA000AF7860FB1C1970BB1C1A707B68FB605B
S1132BB0FB1C1B78032B01D9822332E01B4BFA1C2C
S1132BC012781B498A5C9208D2B21849F81C007822
S1132BD0174C205C8008C0B2083080004158F81CB3
S1132BE00078134C245C03202040C0B2C000C0B263
S1132BF0FF24251C8540281CC0430840B91C0C78C0
S1132C00F91C09780A4D6D5C03212940C9B2C90039
S1132C10C9B2251C8D40291C014308329200D150B1
S1132C200023181CBD4604B0B0BDC04600300540AA
S1132C303464000080B584B000AF78602B4BDB684F
S1132C40002B42D12A4BFB60FB687A685A60FB6810
S1132C5001221A70274A2749274BCB58802149045F
S1132C601943254BD150254B00221A60234B0022D7
S1132C705A60224B0022DA60204B00225A611F4B1B
S1132C800022DA611D4B00225A621C4B0022DA62D8
S1132C901A4B00225A63194B194A9A60174B2C227B
S1132CA0DA61164B174A1A62174B174A516F174AC3
S1132CB00A40C02189000A435A67104B0A221A604D
S1132CC00A4BFA68DA60FB680CE0084BDB68FB60CF
S1132CD0FB687A685A60FB681B780133DAB2FB68D8
S1132CE01A70FB68181CBD4604B080BD54E0FF1F79
S1132CF040E0FF1F007004403C10000000800340CF
S1132D00CCCC00007B14000000D00440FFF8FFFE90
S1132D1080B584B000AF786039600B4B9A683B1C77
S1132D200E331A803B1C0E333A1C0E3212880132C9
S1132D301A803B683A1C0E3212881A800023181C31
S1132D40BD4604B080BDC0460080034080B582B05B
S1132D5000AF7860FB1C19703B1C1A80FB1C1B78AD
S1132D60002B01D0822313E0FB1C1B780A4AD35C9E
S1132D70002B01D009230BE00849FB1C1B78084AEF
S1132D80D35C3A1C12880133DB00CB189A60002311
S1132D90181CBD4602B080BD3C64000000800340A6
S1132DA03864000080B500AF0C4A0C490C4BCB587A
S1132DB08021C90019430A4BD150084A0749084BDE
S1132DC0CB5820211943064BD150064B00221A64DC
S1132DD0044B00225A64BD4680BDC04600700440C6
S1132DE03810000000A0044080B582B000AFFB1D85
S1132DF000221A70FFF7D4F8031C191CFB1DFA1DDE
S1132E0012780A431A704D4B1B78181C04210322B4
S1132E10FDF756FE031C191CFB1DFA1D12780A430C
S1132E201A70464B1B78181C05210022FDF748FE3A
S1132E30031C191CFB1DFA1D12780A431A703F4B20
S1132E401B78181C06210022FDF73AFE031C191CEE
S1132E50FB1DFA1D12780A431A70384B1B78181C94
S1132E600721FA22FDF72CFE031C191CFB1DFA1D79
S1132E7012780A431A70314B1B78181C0121C022A6
S1132E80FDF71EFE031C191CFB1DFA1D12780A43D4
S1132E901A700F200321FFF74DFB031C191CFB1DA7
S1132EA0FA1D12780A431A700B200121FFF742FB26
S1132EB0031C191CFB1DFA1D12780A431A70042006
S1132EC00821FFF737FB031C191CFB1DFA1D1278A0
S1132ED00A431A7005206421FFF72CFB031C191CFC
S1132EE0FB1DFA1D12780A431A7006200421FFF70D
S1132EF021FB031C191CFB1DFA1D12780A431A70CE
S1132F0007200021FFF716FB031C191CFB1DFA1DEB
S1132F1012780A431A70A0231B020120191CFFF720
S1132F2009FB031C191CFB1DFA1D12780A431A70B5
S1132F30FB1D1B78181CBD4602B080BD04E0FF1FBA
S1132F4080B584B000AF7860104BFB60FB687A6892
S1132F509A60FB6801221A71FB680D4ADA800D4BF6
S1132F60FA681A610020FFF765FE021CFB681A600C
S1132F70FB681B68002B04D1064B00221A61002356
S1132F8000E0FB68181CBD4604B080BD48E0FF1F8C
S1132F909919000054E0FF1F80B584B000AF786039
S1132FA00A1CBB1C1A807B68FB60FB68BA1C128875
S1132FB0DA807B68181C00F005F80023181CBD4655
S1132FC004B080BD80B586B000AF78607B683B619B
S1132FD03B691A683B1C0E33101C191CFFF798FE42
S1132FE03B1C0E331B88002B05D13B1C16333A695E
S1132FF0D2881A800CE03B1C0E331B883A69D288B5
S11330005343802212029B181A0C3B1C16331A805D
S11330103B691A683B1C16331B88101C00211A1CC0
S1133020FFF794FEBD4606B080BDC04680B584B0AF
S113303000AF78601A4BFB60FB687A681A60194B22
S1133040FA681A60184B184AD168184A0A40802155
S113305049000A43DA60144B134AD168144A0A40FF
S1133060852149040A43DA60124A1249C7239B00A6
S1133070CB581B021B0A802109061943C7239B0056
S1133080D1500C4B0B4A1268802109060A431A607E
S1133090094BFA685A60FB68181CBD4604B080BD31
S11330A068E0FF1F6CE0FF1F00B00440FFF8FFFE64
S11330B0FFFFF0FE00E100E054E0FF1F80B582B0A6
S11330C000AF0C4B1B687B600B4BDA6880235B04FE
S11330D013400BD0084B084AD268802149040A43A4
S11330E0DA607B681B68181C00F042F9BD4602B028
S11330F080BDC0466CE0FF1F00B0044080B500AF47
S1133100FFF7DCFFBD4680BD80B500AF02F06EF86E
S1133110BD4680BD80B500AFFFBEBD4680BDC04684
S113312080B500AF384A3949394BD150394A8823E0
S11331305B010021D150374A374BC0218902D1505D
S1133140344A3449354BCB58F82189011943334B60
S1133150D150334B9B78DBB21A1C0823134007D0A1
S11331602F4B2F4A9278D2B208210A43D2B29A70D6
S1133170284A294B0021D150264A2649294BC958AF
S1133180294B1940274BD150224B224A1268C021A7
S113319009030A431A601F4A1E49224BC958234B8C
S11331A00B408021490419431E4BD150204B062269
S11331B01A701F4B1E4A5278D1B240220A40D2B232
S11331C05A701B4B1A4AD278D1B21F220A40D2B28B
S11331D0DA70184B80221A70154B00221A71144BA6
S11331E000225A71C046124B9B79DBB21A1C102381
S11331F01340F8D0C0460E4B9B79DBB21A1C0C234B
S11332001340F8D1BD4680BD00E000E0000000009E
S1133210080D000000700440441000003810000045
S113322000D0074004100000FFFFFEFFFFFFFFFC7B
S1133230004006400050064080B500AF414B414A73
S11332401169414A0A40E021C9000A431A613F4B0F
S11332503E4A5279D2B21F218A43D2B25A713B4BB1
S11332603A4A1279D2B207218A43D2B21A71384B40
S1133270374A1278D2B2D2B273218A43D2B25021E1
S11332800A43D2B2D2B21A70314B314A5278D2B216
S1133290D2B263218A43D2B240210A43D2B2D2B21B
S11332A05A702B4B2A4A9278D2B219218A43D2B24D
S11332B09A70284B00221A70274B274A526908211A
S11332C08A435A61254B254AD168254A0A4003217D
S11332D00A43DA60234A2349C7239B00CB581B02C5
S11332E0190AC7239B00D1501F4B1F4A116C164A61
S11332F00A401A641C4B1C4A516C134A0A405A6413
S1133300104B104A116D104A0A40E021C9000A43CB
S11333101A65144A1349C1239B00C958134B194019
S1133320C1239B00D150002000F02CF80020FFF7AF
S11333307DFEFFF74DFB0020FFF702FE62B6BD469F
S113334080BDC04600900440FFF8FFFE00F0074037
S113335000D0074000E0074080F00F4000B0044078
S1133360FCFFFFFE00E100E000A00440FFFF00FFBF
S113337080B582B000AF786001F03CFFBD4602B07A
S113338080BDC04680B584B000AF7860104BFB6050
S1133390FB687A681A600F4B0E4A526920210A436F
S11333A05A610C4B0B4A126820218A431A600A4B5B
S11333B0094A5169094A0A40802149000A435A616D
S11333C0074BFA681A60FB68181CBD4604B080BD40
S11333D070E0FF1FC0F00F4000C00440FFF8FFFE84
S11333E054E0FF1F80B500AF054A064BD31A054AC7
S11333F0101C00211A1C01F0D3FFBD4680BDC0463D
S113340098E1FF1F34E0FF1F02F0C6FFFFF788FEBC
S1133410FFF7E8FF02F0F4FF02F072FF02F0CAFFC8
S1133420044B0020191C01F01FFB031C181C01F0A5
S11334309BFFC04674E0FF1F80B582B000AF786088
S1133440FEE7C04680B582B000AF0A1CBB1D011C5C
S113345019807B1D1A70BB1D19887B1D1A78074BB8
S11334605200D35A1A1C131C5B009B18CB189B08E0
S11334709BB2181CBD4602B080BDC046DCE0FF1FF5
S113348080B584B000AF78603B1C0F3300221A7003
S11334907B6800221A607B6800225A607B681B6884
S11334A0C02212041A437B681A603B1C0F331B783A
S11334B0181CBD4604B080BD80B584B000AF7860F0
S11334C03B1C0F3300221A707B681B688022191C76
S11334D091430A1C7B681A607B681A680E4B1A4079
S11334E07B681A603B1C0E330C4A52791A707B6855
S11334F01A683B1C0E331B78013B1902F8235B014D
S11335000B401A437B681A603B1C0F331B78181C52
S1133510BD4604B080BDC046FFE0FFFFB0E0FF1F22
S113352080B584B000AF786039603B1C0F33002253
S11335301A703B681B688022191C91430A1C3B6863
S11335401A607B685B7B012B1FD1174B5B889AB297
S1133550402313409BB2002B06D03B681B682022FB
S11335601A433B681A6007E03B681B682022191C59
S113357091430A1C3B681A603B1C0F333A1C0F3200
S1133580127801210A431A7007E03B681B68202265
S1133590191C91430A1C3B681A603B1C0F331B78AF
S11335A0181CBD4604B080BDB0E0FF1F80B586B0D6
S11335B000AFF860B9607A603B1C163300221A70C1
S11335C0854B5B889AB2802313409BB2002B07D1B2
S11335D0814B5B889AB2402313409BB2002B03D0EB
S11335E0BB6800229A805FE03B1C173300221A70EC
S11335F055E03B1C17331A78784B9200D3581A685D
S1133600FB689A4244D13B1C17331B78DB08DBB2BE
S1133610734AD35C1A1C3B1C1733197807230B40DD
S1133620DA400123134033D13B1C17331A786B4B18
S11336309200D2583B1C1533127A1A70BB689B88CF
S11336409BB23A1C153212780121081C9040021CCE
S113365092B213409BB2002B1AD07B681B68802265
S1133660191C91430A1C7B681A60BB689B889BB237
S11336709BB23A1C153212780121081C9040021C9E
S113368092B2D24392B213409BB29AB2BB689A8070
S11336903B1C17333A1C1732127801321A703B1C48
S11336A017331B78012BA4D93B1C173300221A7043
S11336B084E03B1C17331A78484B9200D3581A689D
S11336C0FB689A4200D072E0434B5B889AB2802335
S11336D013409BB2002B07D13F4B5B889AB2402327
S11336E013409BB2002B21D03B4B9B7ADBB23A1C9C
S11336F0173212789A425AD13B1C17331A78374B37
S11337009200D2583B1C1533127A1A70BB689B88FE
S11337109AB23B1C15331B780121081C9840031CEA
S11337209BB213439AB2BB689A8040E03B1C1733A8
S11337301B78DB08DBB22A4AD35C1A1C3B1C173308
S1133740197807230B40DA40012313402FD03B1C88
S113375017331A78214B9200D2583B1C1533127A36
S11337601A70BB689B889BB23A1C153212780121EF
S1133770081C9040021C92B213409BB2002B16D13D
S11337807B681B688022191C91430A1C7B681A60A1
S1133790BB689B889AB23B1C15331B780121081C1B
S11337A09840031C9BB213439AB2BB689A803B1C9B
S11337B017333A1C1732127801321A703B1C173334
S11337C01B78012B00D874E73B1C16331B78181C9C
S11337D0BD4606B080BDC046B0E0FF1F30650000A6
S11337E048E1FF1F80B58EB000AFF860B9607A6021
S11337F03B1C373300221A70FB681A68E0231B0253
S113380013405B0BDAB23B1C10331A70FB681A6866
S1133810E023DB0213401B0CDAB23B1C10335A705A
S1133820CC4B5B889AB2802313409BB2002B11D0FF
S11338303B1C28338022D2001A803B1C27330822E9
S11338401A703B1C263307221A703B1C35330022A6
S11338501A7010E03B1C28338022D2001A803B1CD3
S1133860273308221A703B1C263307221A703B1C8C
S1133870353300221A703B1C1C33012252425A80F9
S11338803B1C1833012252425A803B1C2B3300222A
S11338901A70FB68B04A9A60FB681B688022191C86
S11338A091430A1CFB681A60FB681B684022191CC0
S11338B091430A1CFB681A60FB681B681022191CE0
S11338C091430A1CFB681A60FB681B6880221A4338
S11338D0FB681A603B1C22337A6892881A803B1C6E
S11338E034333A1C2732127852081A703B1C2F3397
S11338F000221A703B1C1433012252425A803B1C92
S1133900253300221A703B1C2F333A1C2F321278B5
S113391001321A703B1C333301221A703B1C2C33C6
S113392000221A803B1C363300221A7082E03B1CB2
S113393022331A883B1C36331B78DA4001231340A8
S113394000D170E0FB681A68844B1A40FB681A6067
S1133950FB681A683B1C35331B785B031B041B0C88
S11339601A43FB681A60FB681A687D4B1A40FB68AF
S11339701A60FB681A683B1C34331B781904E02373
S1133980DB020B401A43FB681A60FB685B681B018F
S11339901A09FB685A60FB685A683B1C36331B786B
S11339A01B071A43FB685A60FB685B688022D203DA
S11339B01A43FB685A60FB681A6804231340FAD060
S11339C0FB681B6804221A43FB681A60C046C046A1
S11339D0FB685A683B1C30331A803A1C30323B1C5B
S11339E0283312881B889A4203D23B1C33330022AB
S11339F01A703B1C2C331B88002B06D13B1C2C3328
S1133A003A1C303212881A800DE03B1C2C331B8880
S1133A105B0899B23B1C30331B885B089AB23B1C91
S1133A202C338A181A803B1C36333A1C36321278EF
S1133A3001321A703B1C36331B780F2B00D876E703
S1133A403A1C2C323B1C283312881B889A420AD910
S1133A503B1C3033391C2C313A1C2832098812881B
S1133A608A1A1A8009E03B1C3033391C28313A1C6D
S1133A702C32098812888A1A1A803B1C33331B782B
S1133A80012B2ED13A1C2C323B1C283312881B8864
S1133A909A420CD83B1C25331B78002B21D03B1CAD
S1133AA014335B883A1C303212889A4219D83B1C72
S1133AB014333A1C343212785A703B1C14333A1CB7
S1133AC0353212781A703B1C14333A1C3032128887
S1133AD05A803B1C25333A1C2532127801321A7065
S1133AE01EE03B1C14335B883A1C303212889A4225
S1133AF016D83B1C25331B78002B11D13B1C1433E7
S1133B003A1C343212785A703B1C14333A1C353246
S1133B1012781A703B1C14333A1C303212885A80C3
S1133B203B1C33331B78012B1CD13B1C27331B78E4
S1133B305B08DBB21A1C3B1C2F331B78111CD940C9
S1133B400B1CD9B23B1C34333A1C343212788A1819
S1133B501A701BE0B0E0FF1F0000FFFFFF1FFFFF14
S1133B60FFFFF8FF3B1C27331B785B08DBB21A1CF2
S1133B703B1C2F331B78111CD9400B1CDAB23B1CA5
S1133B803433391C343109788A1A1A703B1C2733B0
S1133B901B785B08DBB21A1C3B1C2F331B78111CEF
S1133BA0D9400B1C002B00D0ADE63B1C1C335A88BB
S1133BB03B1C14335B889A421ED33B1C25331B7871
S1133BC0002B19D03B1C14331A783B1C1C331A707D
S1133BD03B1C14335A783B1C1C335A703B1C143363
S1133BE05A883B1C1C335A803B1C2B333A1C2B3207
S1133BF0127801321A701EE03B1C18335A883B1CA1
S1133C0014335B889A4216D33B1C2B331B78002B4E
S1133C1011D13B1C14331A783B1C18331A703B1C0B
S1133C2014335A783B1C18335A703B1C14335A888B
S1133C303B1C18335A803B1C35333A1C35321278FE
S1133C4001321A703B1C35331A783B1C26331B781F
S1133C5001339A4200D242E63B1C2B331B78002BE3
S1133C6005D07B683A1C28321288DA8038E03B1C85
S1133C7018331A783B1C1C331A703B1C18335A78BF
S1133C803B1C1C335A703B1C2F3300221A703B1C04
S1133C9018335A883B1C3033391C283109888A1A56
S1133CA01A8006E03B1C2F333A1C2F321278013263
S1133CB01A703B1C30331A883B1C2F331B78111CA1
S1133CC019410B1C002BEDD13B1C2F331B78013BFE
S1133CD0DBB20122111C99400B1C9AB27B68DA807A
S1133CE0FB681B688022191C91430A1CFB681A603C
S1133CF0FB681A68284B1A40FB681A60FB681A684C
S1133D003B1C1C331B785B031B041B0C1A43FB6812
S1133D101A60FB681A68214B1A40FB681A60FB683A
S1133D201A683B1C1C335B781904E023DB020B404C
S1133D301A43FB681A601A4B5B889AB280231340BB
S1133D409BB2002B09D03B1C1C335A883B1C2833E4
S1133D501B88D3189AB2134B1A803B1C10331A7861
S1133D603B1C1C331B789A4207D13B1C10335A78F6
S1133D703B1C1C335B789A4207D03B1C37333A1CFC
S1133D803732127810210A431A703B1C37331B78E0
S1133D90181CBD460EB080BDFF1FFFFFFFFFF8FFDC
S1133DA0B0E0FF1F94E1FF1F80B584B000AF7860DE
S1133DB039603B1C0F3300221A703B681B68802259
S1133DC0191C91430A1C3B681A603B681B6840221B
S1133DD0191C91430A1C3B681A603B68354A9A6077
S1133DE07B685B7B012B5ED13B1C0E33324A927A9B
S1133DF01A703B1C0E331B78012B54D83B1C0E331A
S1133E001A782E4B9200D3581A687B689A424AD18A
S1133E103B681B681022191C91430A1C3B681A60FA
S1133E203B685B681B011A093B685A603B685A6827
S1133E303B1C0E331978214B8900CB581B7A1B0786
S1133E401A433B685A603B681B6880221A433B68EC
S1133E501A603B685B688022D2031A433B685A604D
S1133E603B681A6804231340FAD0C046C0463B6836
S1133E705A683B1C0C331A803B1C0B330E4AD27A13
S1133E801A703B1C0C331A883B1C0B331B78D31859
S1133E901A043B689A603B1C0F333A1C0F321278A9
S1133EA002210A431A703B1C0F331B78181CBD46B1
S1133EB004B080BD0000FFFFB0E0FF1F30650000CC
S1133EC080B588B000AFF860B9607A603B1C1F33DE
S1133ED000221A70634BBB61FB681B688022181CAC
S1133EE09043021CFB681A605F4B1B7BDAB203230E
S1133EF01340DBB2002B0ED1FB681B6810221A435F
S1133F00FB681A603B1C1F333A1C1F3212780821CD
S1133F100A431A700FE0FB681B681022191C9143B6
S1133F200A1CFB681A603B1C1F333A1C1F321278B0
S1133F3004210A431A70FB681B6840221A43FB6879
S1133F401A60FB681B68802252051A43FB681A60DA
S1133F50BA69C0235B00D2587B681B7B191C1F23E2
S1133F600B400121081C9840031C111C1943BA6919
S1133F70C0235B00D150BB691A687B681B7B191C8A
S1133F801F230B400121081C9840031C1A43BB69E2
S1133F901A60BB6800221A70BB6800229A70324B08
S1133FA05B889AB2402313409BB2002B52D07B68AB
S1133FB05B7B012B4ED1FB689B681B0C1A042B4BBB
S1133FC09A4217D0FB685B681B011A09FB685A60A8
S1133FD03B1C1733244A927A1A70FB685A683B1CBC
S1133FE017331978224B8900CB581B7A1B071A43C5
S1133FF0FB685A60FB681B6810221A43FB681A604E
S1134000FB681A681B4B1A40FB681A60FB681B6844
S113401040221A43FB681A60FB681B6880221A431B
S1134020FB681A603B1C1F333A1C1F3212780121B3
S11340300A431A703B1C1F333A1C1F3212780421A6
S11340408A431A703B1C1F333A1C1F321278082112
S11340508A431A703B1C1F331B78181CBD4608B0DA
S113406080BDC04600E100E0B0E0FF1F0000FFFF9C
S113407030650000FFFFFFEF80B588B000AF0A1C79
S1134080FB1D011C1970BB1D1A703B1C1F33002241
S11340901A70FB1D1A78D04B9200D358BB61BB69D0
S11340A01B687B617B695B683B61BB695B68FB6028
S11340B0BB1D1B78052B1BD1FB689B78DBB2012B46
S11340C000D082E1FB6800221A70FB6802229A7019
S11340D03B695B688022D2031A433B695A603B1CEC
S11340E01F333A1C1F32127804210A431A706CE100
S11340F0BB1D1B78012B6BD13B69181CFFF7C0F962
S1134100031C191C3B1C1F333A1C1F3212780A4330
S11341101A703B69181CFFF7CFF9031C191C3B1CD0
S11341201F333A1C1F3212780A431A707A693B69AA
S1134130101C191CFFF7F4F9031C191C3B1C1F333A
S11341403A1C1F3212780A431A707969FA683B697B
S1134150081C111C1A1CFFF729FA031C191C3B1C10
S11341601F333A1C1F3212780A431A7039697A696C
S1134170FB68081C111C1A1CFFF734FB031C191CD8
S11341803B1C1F333A1C1F3212780A431A707A6997
S11341903B69101C191CFFF707FE031C191C3B1C70
S11341A01F333A1C1F3212780A431A703969FA68AD
S11341B07B69081C111C1A1CFFF782FE031C191CC6
S11341C03B1C1F333A1C1F3212780A431A70FCE05E
S11341D0BB1D1B78032B3ED13B69181CFFF76CF900
S11341E0031C191C3B1C1F333A1C1F3212780A4350
S11341F01A7039697A69FB68081C111C1A1CFFF7CC
S1134200F1FA031C191C3B1C1F333A1C1F32127891
S11342100A431A707A693B69101C191CFFF7C4FD24
S1134220031C191C3B1C1F333A1C1F3212780A430F
S11342301A703969FA687B69081C111C1A1CFFF78B
S11342403FFE031C191C3B1C1F333A1C1F321278FF
S11342500A431A70B9E0BB1D1B78062B2FD17A696B
S11342603B69101C191CFFF75BF9031C191C3B1C50
S11342701F333A1C1F3212780A431A707A693B6959
S1134280101C191CFFF790FD031C191C3B1C1F3349
S11342903A1C1F3212780A431A703969FA687B692A
S11342A0081C111C1A1CFFF70BFE031C191C3B1CD9
S11342B01F333A1C1F3212780A431A7085E0BB1D63
S11342C01B78072B20D17A693B69101C191CFFF756
S11342D027F9031C191C3B1C1F333A1C1F3212788C
S11342E00A431A703969FA687B69081C111C1A1C84
S11342F0FFF7E6FD031C191C3B1C1F333A1C1F323D
S113430012780A431A7060E0BB1D1B78082B31D168
S113431039697A69FB68081C111C1A1CFFF762FAD8
S1134320031C191C3B1C1F333A1C1F3212780A430E
S11343301A707A693B69101C191CFFF735FD031CC0
S1134340191C3B1C1F333A1C1F3212780A431A7083
S11343503969FA687B69081C111C1A1CFFF7B0FD47
S1134360031C191C3B1C1F333A1C1F3212780A43CE
S11343701A702AE0BB1D1B78022B11D17969FA68E7
S11343803B69081C111C1A1CFFF710F9031C191CAB
S11343903B1C1F333A1C1F3212780A431A7014E074
S11343A0BB1D1B78042B10D13969FA687B69081C82
S11343B0111C1A1CFFF784FD031C191C3B1C1F3322
S11343C03A1C1F3212780A431A703B1C1F331B78A5
S11343D0181CBD4608B080BD3065000080B584B0AF
S11343E000AF786039603B689A687B681B7A5B0031
S11343F0D3181A88294B1A80284B1B881A1C284B5F
S11344001B8828494B4328495B185B0C9BB22749FE
S1134410CB1A9A4204DD3B1C0F3306221A7035E096
S11344201E4B1B881A1C1E4B1B881E494B431E49DE
S11344305B181B0C9BB21D49CB1A9A4204DD3B1C32
S11344400F3304221A7021E0154B1B88184A53437A
S11344505B0C9AB2114B1B889A4204D93B1C0F3354
S113446007221A7012E00E4B1B88114A53431B0C8F
S11344709AB20A4B1B889A4204D93B1C0F3303227D
S11344801A7003E03B1C0F3300221A703B1C0F33DD
S11344901B78181CBD4604B080BDC04694E1FF1FC4
S11344A080E0FF1FCDCCFFFFCDCC3233FFFF0000F7
S11344B03333000080B586B000AFF860B9607A602D
S11344C01A1CFB1C1A70394B1B7BDAB203231340F2
S11344D0DBB2012B28D1FB681B78DBB2012B1ED089
S11344E0FB68FA1C12785A707B685B681B011A0916
S11344F07B685A607B685A68FB1C1B781B071A434D
S11345007B685A60FB6800221A70FB6802229A706A
S11345107B685B688022D2031A437B685A603B1C29
S1134520173301221A703AE0FB68FA1C12785A70A9
S1134530FB6801229A707B685B681B011A097B681F
S11345405A607B685A68FB1C1B781B071A437B68FC
S11345505A60164B1B7BDAB203231340DBB2002BE9
S113456019D1FB681B78DBB2022B0CD13B1C17332F
S113457005221A707B681B688022191C91430A1C4F
S11345807B681A6003E03B1C173301221A70FB6836
S113459000221A7003E03B1C173301221A703B1CE3
S11345A017331B78181CBD4606B080BDB0E0FF1F52
S11345B090B589B000AF0A1CFB1D011C1970BB1D0E
S11345C01A70FB1D1A786F4B9200D358BB61BB69FC
S11345D01B687B617B695B683B61BB695B68FB60F3
S11345E03B1C0B33BA69127A1A70BB1D1B78012B62
S11345F021D13B691A688023134005D13B691B68AC
S113460080221A433B691A60FB689B78DBB2002B5B
S11346100CD13C1C1F34F86879693A693B1C0B3394
S11346201B78FFF747FF031C2370A3E03B1C1F33D9
S113463001221A709EE0BB1D1B78022B34D13B690A
S11346401A688023134005D13B691B6880221A43F2
S11346503B691A60FB689B78DBB2002B1FD1FB68B7
S11346601B78DBB2002B0DD0FB6803221A703C1CB4
S11346701F34BA697B69101C191CFFF7AFFE031CB9
S1134680237077E03C1C1F34F86879693A693B1C55
S11346900B331B78FFF70EFF031C23706AE03B1CEF
S11346A01F3301221A7065E0BB1D1B78042B26D131
S11346B03B1C1E33FA1D12781A703B1C1E331B78E8
S11346C0002B07D13B1C1E333A1C1E3212780132D8
S11346D01A7003E03B1C1E3300221A703B1C1E336D
S11346E01A78284B9200D3581A687B699A42E4D10D
S11346F03B1C1F333A1C1E3212781A703AE0BB1D61
S11347001B78032B24D13C1C1F34FB1D1B78181C65
S11347100821FFF7B1FC031C23703B1C1F331A78DC
S11347202023134004D03B1C1F3306221A7021E0BF
S11347303B1C1F331A781023134004D03B1C1F3337
S113474002221A7016E03B1C1F3300221A7011E07B
S1134750BB1D1B78052B0DD13C1C1F34FB1D1B7886
S1134760181C0221FFF788FC031C23703B1C1F3319
S113477000221A703B1C1F331B78181CBD4609B05D
S113478090BDC0463065000090B585B000AF634B66
S11347905B68BB60624B5B889AB2402313409BB258
S11347A0002B25D0BB681B68802212061A43BB6805
S11347B01A60BB681B68802252051A43BB681A60E2
S11347C0BB681B684022191C91430A1CBB681A6011
S11347D0BC1D0120FDF7CEFF031C2380BB1D1B88DD
S11347E0402293439BB20120191CFDF7A3FE8EE0E7
S11347F0BB681B6804221A43BB681A60494B1B78C8
S1134800DBB2002B00D07FE0BB681B681022191CB0
S113481091430A1CBB681A60BB685B681A0F3B1C97
S11348200F331A703D4B9A683B1C0F331B785B00A7
S1134830D218BB685B689BB21380BB1D394A92884F
S11348401A803B1C0E3312221A703B1C0F331B7848
S11348500E2B07D83B1C0F333A1C0F32127801324F
S11348601A7003E03B1C0F3300221A703B1C0E33FA
S11348703A1C0E321278013A1A703B1C0F331B7823
S11348800122111C99400B1C9BB2BA1D12881340C3
S11348909BB2002B04D13B1C0E331B78002BD4D1CC
S11348A0204B5B78DBB23A1C0F3212789A4214D157
S11348B01C4B01221A701B4B00229A70184B1B7B55
S11348C0DAB203231340DBB2002B20D1BB681B6890
S11348D010221A43BB681A6019E0BB685B681B01AD
S11348E01A09BB685A60BB685A683B1C0F331B78B3
S11348F01B071A43BB685A60BB685B688022D203FB
S11349001A43BB685A6002E0064B02221A70064B37
S113491001221A70BD4605B090BDC0460065000076
S1134920B0E0FF1F78E0FF1F84E1FF1F90B587B060
S113493000AF021CFB1D1A703B1C173300221A70B7
S11349403B1C163300221A700DE03B1C16331B78F7
S11349503A1C0C320021D1543B1C16333A1C16323B
S1134960127801321A703B1C16331B78002BECD0E2
S11349703B1C163300221A7068E03B1C16331B786C
S1134980DB08DBB23A1C0C32D35C1A1C3B1C16331A
S1134990197807230B40DA40012313404FD13B1C05
S11349A016331A782F4B9200D3581B683B613B692E
S11349B01B683A1C16321178FA1D1278081C111C57
S11349C09847031C191C3B1C17333A1C17321278E6
S11349D00A431A703B1C15333A1C163212781A70AB
S11349E028E03B1C15331A781E4B9200D3581A68E2
S11349F03B699A4217D13B1C15331B78DB08DBB2A9
S1134A001A1C391C0C31C95C3B1C1533187807235C
S1134A1003400120041C9C40231CDBB20B43D9B28D
S1134A203B1C0C3399543B1C15333A1C1532127839
S1134A3001321A703B1C15331B78012BD1D93B1C56
S1134A4016333A1C1632127801321A703B1C163394
S1134A501B78012B91D93B1C17331B78181CBD46BE
S1134A6007B090BD3065000080B500AFFEF7E4FBF1
S1134A70FEF7BAF9FDF7C6FBFCE7C04680B584B083
S1134A8000AF3B1D186039603B1D1B781A1C3B6846
S1134A90111C19410B1CDAB23B1C08331A703B1D64
S1134AA05B781A1C3B68111C19410B1CDAB23B1CC5
S1134AB008335A703B1D9B781A1C3B68111C194122
S1134AC00B1CDAB23B1C08339A703B1DDB781A1CB2
S1134AD03B68111C19410B1CDAB23B1C0833DA7019
S1134AE03B1C0C333A1C083212681A603A1C0C3214
S1134AF000231078FF210140FF2083430B435078AB
S1134B00FF2101400902094803400B439078FF212B
S1134B1001400904064803400B43D27812061B02E5
S1134B201B0A1343181CBD4604B080BDFF00FFFFE1
S1134B30FFFF00FF80B586B000AFF860B960FB6886
S1134B40092B00D913E1FB689A009A4BD3181B6810
S1134B509F46994BBA681868111CFFF78FFF031C16
S1134B603A1C191C11701A04110E7A1C11701A02C5
S1134B70110EBA1C11701A0EFB1C1A703B1C143354
S1134B803A1C12681A60F4E08C4BBA681868111C5D
S1134B90FFF774FF031C3A1C191C11701A04110E40
S1134BA07A1C11701A02110EBA1C11701A0EFB1C19
S1134BB01A703B1C14333A1C12681A60D9E0804BFB
S1134BC0BA681868111CFFF759FF031C3A1C191C1A
S1134BD011701A04110E7A1C11701A02110EBA1CEB
S1134BE011701A0EFB1C1A703B1C14333A1C126809
S1134BF01A60BEE0734BBA681868111CFFF73EFFD9
S1134C00031C3A1C191C11701A04110E7A1C117021
S1134C101A02110EBA1C11701A0EFB1C1A703B1CDE
S1134C2014333A1C12681A60A3E0674BBA68186818
S1134C30111CFFF723FF031C3A1C191C11701A04E2
S1134C40110E7A1C11701A02110EBA1C11701A0E70
S1134C50FB1C1A703B1C14333A1C12681A6088E05F
S1134C605A4BBA681868111CFFF708FF031C3A1C5A
S1134C70191C11701A04110E7A1C11701A02110EEB
S1134C80BA1C11701A0EFB1C1A703B1C14333A1C0C
S1134C9012681A606DE04E4BBA681868111CFFF771
S1134CA0EDFE031C3A1C191C11701A04110E7A1C17
S1134CB011701A02110EBA1C11701A0EFB1C1A7014
S1134CC03B1C14333A1C12681A6052E0414BBA6818
S1134CD01868111CFFF7D2FE031C3A1C191C117032
S1134CE01A04110E7A1C11701A02110EBA1C1170DA
S1134CF01A0EFB1C1A703B1C14333A1C12681A60FF
S1134D0037E0354BBA681868111CFFF7B7FE031C6F
S1134D103A1C191C11701A04110E7A1C11701A0213
S1134D20110EBA1C11701A0EFB1C1A703B1C1433A2
S1134D303A1C12681A601CE0284BBA681868111CE7
S1134D40FFF79CFE031C3A1C191C11701A04110E67
S1134D507A1C11701A02110EBA1C11701A0EFB1C67
S1134D601A703B1C14333A1C12681A6001E0C046E6
S1134D701BE03A1C143200231078FF210140FF206D
S1134D8083430B435078FF21014009021448034038
S1134D900B439078FF2101400904124803400B4360
S1134DA0D27812061B021B0A1343181CBD4606B018
S1134DB080BDC046386500000CE0FF1F10E0FF1FF7
S1134DC014E0FF1F18E0FF1F1CE0FF1F20E0FF1F7F
S1134DD024E0FF1F28E0FF1F2CE0FF1F30E0FF1F2F
S1134DE0FF00FFFFFFFF00FF80B58CB000AFF8604D
S1134DF0B960BA68804B9A4206DDBB68181C7E49CC
S1134E00FDF7DAFD0B1CBB60BB68092B2ADCBB6811
S1134E10FB62FB6A181C0021FFF78CFE031C3A1C82
S1134E20191C11701A04110E7A1C11701A02110E39
S1134E30BA1C11701A0EFB1C1A703B1C1C333A1C52
S1134E4012681A603B1C18336C4A12681A603B1CC7
S1134E5014336A4A12681A603B1C1033674A12689A
S1134E601A605FE1BB68092B4FDDBB68632B4CDC28
S1134E70BB68181C0A21FDF79FFD0B1CFB62BB6875
S1134E80181C0A21FDF742FD031CBB60BB68BB6212
S1134E90FB6A181C0021FFF74DFE031C3A1C191C69
S1134EA011701A04110E7A1C11701A02110EBA1C18
S1134EB011701A0EFB1C1A703B1C1C333A1C12682E
S1134EC01A60BB6A181C0221FFF734FE031C3A1C4B
S1134ED0191C11701A04110E7A1C11701A02110E89
S1134EE0BA1C11701A0EFB1C1A703B1C18333A1CA6
S1134EF012681A603B1C1433404A12681A603B1C47
S1134F0010333E4A12681A600CE1BB68632B79DDEA
S1134F10BA683B4B9A4275DCBB68181C0A21FDF742
S1134F204BFD0B1CFB62BB68181C0A21FDF7EEFC51
S1134F30031CBB60BB68181C0A21FDF73DFD0B1C5C
S1134F40BB62BB68181C0A21FDF7E0FC031CBB60B4
S1134F50BB687B62FB6A181C0021FFF7EBFD031C96
S1134F603A1C191C11701A04110E7A1C11701A02C1
S1134F70110EBA1C11701A0EFB1C1A703B1C1C3348
S1134F803A1C12681A60BB6A181C0221FFF7D2FD92
S1134F90031C3A1C191C11701A04110E7A1C11708E
S1134FA01A02110EBA1C11701A0EFB1C1A703B1C4B
S1134FB018333A1C12681A607B6A181C0421FFF724
S1134FC0B9FD031C3A1C191C11701A04110E7A1C29
S1134FD011701A02110EBA1C11701A0EFB1C1A70F1
S1134FE03B1C14333A1C12681A603B1C1033034AEE
S1134FF012681A6096E0C0460F27000088E0FF1F81
S1135000E7030000BB68181C0A21FDF7D5FC0B1C44
S1135010FB62BB68181C0A21FDF778FC031CBB600B
S1135020BB68181C0A21FDF7C7FC0B1CBB62BB68DC
S1135030181C0A21FDF76AFC031CBB60BB68181C22
S11350400A21FDF7B9FC0B1C7B62BB68181C0A2102
S1135050FDF75CFC031CBB60BB683B62FB6A181C6D
S11350600021FFF767FD031C3A1C191C11701A0478
S1135070110E7A1C11701A02110EBA1C11701A0E3C
S1135080FB1C1A703B1C1C333A1C12681A60BB6A66
S1135090181C0221FFF74EFD031C3A1C191C117049
S11350A01A04110E7A1C11701A02110EBA1C117016
S11350B01A0EFB1C1A703B1C18333A1C12681A6037
S11350C07B6A181C0421FFF735FD031C3A1C191CCC
S11350D011701A04110E7A1C11701A02110EBA1CE6
S11350E011701A0EFB1C1A703B1C14333A1C126804
S11350F01A603B6A181C0621FFF71CFD031C3A1CAE
S1135100191C11701A04110E7A1C11701A02110E56
S1135110BA1C11701A0EFB1C1A703B1C10333A1C7B
S113512012681A603B1C1C331A783B1C18331B781A
S11351301343DAB23B1C14331B781343DAB23B1C1F
S113514010331B781343DBB2FA68101C00211A1CBD
S1135150FDF724FD3B1C1C335A783B1C18335B7849
S11351601343DAB23B1C14335B781343DAB23B1CAF
S113517010335B781343DBB2FA68101C01211A1C4C
S1135180FDF70CFD3B1C1C339A783B1C18339B78B1
S11351901343DAB23B1C14339B781343DAB23B1C3F
S11351A010339B781343DBB2FA68101C02211A1CDB
S11351B0FDF7F4FC3B1C1C33DA783B1C1833DB781A
S11351C01343DAB23B1C1433DB781343DAB23B1CCF
S11351D01033DB781343DBB2FA68101C03211A1C6A
S11351E0FDF7DCFCBD460CB080BDC04680B500AF09
S11351F0BD4680BD80B500AFBD4680BD80B582B0E0
S113520000AF021CFB1D1A700A4B1B78DAB2012393
S11352101340DBB2002B01D1064B1B78054B1B78E6
S1135220044B1B7800200021FDF784F9C046BD46DD
S113523002B080BDB0E0FF1F80B500AFFDF7B2FD46
S1135240BD4680BD90B587B000AF3B1D1870424B82
S11352509B787F229343DBB2002B00D177E03E4B57
S11352601B797F229343DBB2002B00D16FE03A4BD2
S11352701A7940231340DBB2002B68D100237B61F1
S1135280002406E0344BDB787A69D3187B61631C15
S1135290DCB2042CF6D97B69181C0521FDF7E8FA69
S11352A0031C1A1C3B1C13331A702C4B1B783A1C1E
S11352B0133212789A4207D9294B1B889BB20533C3
S11352C09BB29AB2264B1A80244B1B783A1C133299
S11352D012789A4207D2224B1B889BB2053B9BB2A1
S11352E09AB21F4B1A801E4B1B881BB2642B02DD23
S11352F01B4B64221A801A4B1B881BB2002B02DA48
S1135300174B00221A800020FDF76EFB031CFB6084
S1135310144B1C69124B1B881AB2131C1B049B1AD6
S1135320181C6421FDF7F2FA031C9BB2201C191C03
S1135330FDF732FE0A4B1B881BB2FA68101C191CBD
S1135340FFF752FD054B3A1C133212781A70C0460F
S1135350BD4607B090BDC04604E0FF1F82E0FF1FBA
S113536084E0FF1F54E0FF1F38B5051C01F006F868
S113537000F0EAFF084C2368002B02D09847002075
S11353802060064C2168002902D088470022226050
S1135390281CFEF751F838BD8CE0FF1F90E0FF1F7A
S11353A010B5041C00F002F8201C10BD30B5C9B2C1
S11353B0031C1F2A31D944420323234005D0D21AA7
S11353C0C51801700130A842FBD1002905D00D0693
S11353D00C042C430B02214319435409031C002CD5
S11353E00ED0251C013D196059609960D96019617E
S11353F059619961D9612033002DF3D16301C31838
S1135400D006400F07D0041C1D1C013C02C5002C13
S1135410FBD180001B18032422409D18002A03D0CE
S113542019700133AB42FBD130BD0000F0B589B037
S113543001901F1C0EAB0391079202901A78081C6E
S113544001990FAC01380026049225780670B14208
S113545017D1119BB34214D1049B002B01D06F2DA3
S11354602FD0642D02D0692D00D0A8E0022F02D1E4
S1135470039802389FE0012F00D0A0E0039802387F
S113548094E0692D0ED004D8582D16D0642D1CD16B
S113549008E0752D04D0782D0FD06F2D15D110E0B4
S11354A0002712E0019A002A0FDA80242606B2426D
S11354B00DD051420191029109E000273E1C1024B5
S11354C007E000273E1C082403E0002600E0012634
S11354D00A240090002006900298211CFDF70CFA83
S11354E002980591211CFDF7C3F9059A0290092A37
S11354F001D8303205E0059A3732782D01D1059A6A
S113550057320098069B02990138D2B2009002707B
S11355100133002901D00693DEE7011C082C0BD1CE
S11355200498002808D0302A06D00B1C013B3022F6
S113553000931A70069B0233079802280FD1002E9D
S113554001D1002F02D0109901391091109A1192B3
S1135550102C04D10498002801D0023A1192039926
S11355600098119A091A8918164A914226DC009962
S1135570CA181199121A8A4203DA013830220270C9
S1135580F5E7102C0AD1049C002C07D0019B002BBA
S113559004D0421E3021023815700170002E02D052
S11355A001382D2108E0012F02D101382B2103E01D
S11355B0022F04D101382021017000E0002009B03D
S11355C0F0BDC046FD010000F0B5B64C1E1CA5445C
S11355D06B460A900B913E332021002019700892EB
S11355E00590089A1578002D00D1F9E10898252135
S11355F000F058FE0C90002811D1089800F06AFEC3
S11356000599021C08180590002A00D1E8E10B98BE
S113561008990A9EB047002800D0E1E1CEE00C9F33
S1135620089C05993A1B8B180593002A0CD10C98F9
S11356300C9A437801321D1E252D0CD00027012120
S1135640BC460D97069119E00B9808990A9DA84746
S11356500028ECD1B2E00C9A002102320124089215
S1135660079106943DE02B2B0BDC202B10D0232B31
S113567000D0BAE001239C46013213782B2BF2D1DF
S1135680ABE12D2B00D1A5E1302B00D0ADE004E03F
S11356900D9D012DF0D00220A0E1069C002CEBD042
S11356A002200690E8E737680436FB43D80F937866
S11356B002321C1C683C0021042C00D8C1E0DDB27D
S11356C06E2B00D0C7E0013208926E2D00D149E163
S11356D000D900E1632D00D159E107D8252D00D070
S11356E0F3E010AC25700996012619E0642D00D072
S11356F0EEE0321D09923068032900D0F6E00799E4
S11357006646009601950291039790A9069A0D9B0F
S1135710FFF78CFE041E00D13FE1634F6F443E1A35
S1135720069800283CD02023022800D130236F465D
S11357303E373B7022782B2A04D02D2A02D0371C06
S1135740202A0BD1371C302B08D10B98211C0122A5
S11357500A9B9847002831D00134771E0699022904
S11357600ED1612D01D0412D0AD1012F26DD0B98D8
S1135770211C02220A9DA84700281FD0023F0234A0
S1135780351C079EB54209DA69460B983E31012261
S11357900A9B9847002811D00135F2E73E1C00E02F
S11357A0351C002E03D10698002819D115E0211CC0
S11357B00B98321C0A9CA0470028F4D101225542C0
S11357C005950DE169463F3120240B9801220A9F7B
S11357D00C70B8470028F1D00135079FBD42F1DBBA
S11357E0059A53190593099EFBE6171C2A2B00D032
S11357F0E1E0341D36680796002E03DA7342002573
S1135800079306957B780132261C284F0798B842E7
S113581000DDC2E02E2B11D153782A2B00D142E7B0
S1135820013200271C1C303C092C05D80A214F43A7
S113583001323F191378F5E701203AE70027381CB5
S113584037E71B4D295D1B4D2C57002C00D136E743
S11358505378013233E76E2B0ADC632B2CD002DC45
S1135860582B30D115E0642B13D0692B2BD110E0C9
S1135870732B23D009DC6F2B0BD0702B23D1012386
S11358807825082703219C461DE7752B01D0782B2A
S113589019D1002815D0069C022C00D013E701234F
S11358A0069310E7BCFDFFFF3F020000FD0100006E
S11358B06665000061650000002804D1002902D15A
S11358C001E70127FFE6FF25FDE6582D65D116E027
S11358D0692D62D10DE7732D23D002D86F2D5CD1D1
S11358E00DE0752D0BD0782D57D108E0022901D198
S11358F000B204E7012900D001E740B2FFE6341DFD
S113590009943068032906D0022901D180B202E04B
S1135910012900D1C0B2079E624600920195029609
S1135920F2E63468311D0991002C00D12F4C6346F6
S1135930002B07D026780134002800D1F0E6BE42BF
S113594037DCEDE6002808D0201C61463A1C00F044
S1135950C9FC00282DD0061BE2E6201C00F0BAFC8E
S1135960061CDDE6351D09953468022907D0032994
S11359700AD0002900D036E70598206033E76F4647
S11359801421CB5B23802EE7059A22602BE7336832
S1135990301D10AC09902370A6E60C9800F09AFC18
S11359A0059E021C35180595002819D00B980C99F2
S11359B02FE63E1CB4E600240794191C303909294B
S11359C000D922E7079D0A236B4301325818079038
S11359D01378F2E7002706974EE601200D904BE678
S11359E005989124A400A544F0BDC046606500005C
S11359F0F0B50027A9B0059006910F9309920D9771
S1135A000B9708970A970C970497099D2C78002CFC
S1135A1000D103E3201C00F047FB002822D0099AA0
S1135A2001321078099200F03FFB0028F7D1002FD3
S1135A3000D0F1E2002106980A1C059CA047061C30
S1135A4000F032FB002803D0049B01330493F1E7F8
S1135A50701C04D12E98002800D1DFE2012706989B
S1135A60311CABE2252C1BD0002F19D1391C069810
S1135A703A1C059EB047C1B2A1420AD00698012241
S1135A80B0472E9F002F00D1C8E2099D013509952A
S1135A90C2E2049B09990133013104930991B4E7EB
S1135AA01EAC201C00212822FFF77AFC0998A54E81
S1135AB045786660281E25280CD1211C14A82822AC
S1135AC0E57000F0FEFB099C002002340994079065
S1135AD00E90D7E02A2D02D0099C013405E0012361
S1135AE009992370099C88780234021C303A092AE7
S1135AF01FD800260A256E43303801343618207822
S1135B00031C303B092BF5D91EAD6E60002E0ED15F
S1135B1001235942E97014A8291C2822013400F0F9
S1135B20D0FB2B780994FF2507960E969DE001265D
S1135B306E701EA9682804D06C280CD103208870CC
S1135B4007E0637802228A70682B02D101258D70E8
S1135B506419607801341EABD8705838202871D885
S1135B60FCF77CFE7270702B707070707070701522
S1135B7072707070707270707070727211707019CF
S1135B8070727070720003269E7078215BE09A78C0
S1135B90002A59D056E09978002901D0FF20D87006
S1135BA000231EAAD518FF2601332E72202BF8D10C
S1135BB0C121FE205172107346E09D78002D01D062
S1135BC0FF26DE7063785E2B02D00134002102E0F0
S1135BD0A378012102345D2B07D11EAB2020D87499
S1135BE06378013401E0E3780334002B00D139E217
S1135BF05D2B00D139E2DDB2EA081EAE0720B218EF
S1135C00184001258540107A2E1C657806431672CB
S1135C102D2D14D1A278002A11D05D2A0FD0013382
S1135C209342E0DCDEB2F0081EAD281807251D40C3
S1135C300126AE40351C067A35430572EFE7013480
S1135C402B1CD2E7FF21D9701EAE311C282214A8C8
S1135C5000F037FB6A467A327178107833780E9107
S1135C600790F578013476680994002B06D1252D28
S1135C7008D00F9A146804320F9200E000246E2DAD
S1135C8001D1ADE10024002F01D001270AE00698DC
S1135C90391C0222059B9847002803D02E9F002F11
S1135CA0F3D1BBE1692D25D012D85B2D00D115E1CC
S1135CB006D8252D00D1D3E0582D00D0AEE13EE02A
S1135CC0632D00D17CE0642D00D0A7E10A2012E00E
S1135CD0732D00D1E6E007D86E2D00D180E16F2D41
S1135CE000D09BE1082030E0752D2DD0782D00D018
S1135CF094E124E00020002F48D112A913AA11AD89
S1135D0001910292311C0095059A069B00F0E3F97B
S1135D10119E002E05D12E98002828D101240B9421
S1135D207CE1049B129D9E190496002D05D08021D0
S1135D300A06904201D043422AE0031C28E01020C6
S1135D4003E0C046FFFFFF7F0A20002F1ED111ABE6
S1135D5013A912AD00930291069B311C0195059A7B
S1135D6000F0B9F9119E031C002E03D1D3E70127DB
S1135D70331C0DE0049A129D90190490002D07D055
S1135D8080210E06B34203D05B4201E001270023C9
S1135D90002C11D0079E032E09D8301CFCF75EFDA1
S1135DA006020406237002E0238000E023600C9DB9
S1135DB0794279416A180C920A9801300A906EE08F
S1135DC00E98002800D10126002C33D00021119117
S1135DD0A6198F4200D01FE1B44219D02E9A002A8E
S1135DE004D01198002811DA01230D93002106989C
S1135DF00A1C059DA8470890013009D008AB1D78FE
S1135E0025701199013401311191E5E700240D94B5
S1135E10119E2E9A002E00D1A0E0002A03D00D99E5
S1135E20002900D1F8E0049A0C9C901901340490E4
S1135E300C94D1E01194013E701C0CD00021069802
S1135E400A1C059B9847013E0890013003D0119D20
S1135E5001351195F0E7119E002E00D0BCE0DDE085
S1135E60002F00D0D5E0002106980A1C059EB047FB
S1135E70051C00F019F9002803D0049C0134049493
S1135E80F1E7252D08D001220698291CB0472E9A47
S1135E90002A00D142E7BCE00499013104910124B5
S1135EA00B94B2E501230B93002F17D10698391CEC
S1135EB03A1C059DA847051C00F0F6F8002806D0FA
S1135EC0049B00210133049306980A1CF1E7012284
S1135ED00698291C059B984701220B92002C49D057
S1135EE0002111918F4200D096E0013E351C711CB7
S1135EF024D02E9A002A04D0119B002B1CDC0120F4
S1135F000D90002106980A1C059B984708900130C3
S1135F1014D008A90B7814A8DA0882180898072165
S1135F200140127A01208840104207D02370119D4D
S1135F30013401351195D8E700260D96119B08AE62
S1135F403178002B05D02E9800280AD00D9A002A0B
S1135F5007D101220698059FB8472E9A002A5DD0E2
S1135F605AE00020049E20700C9CF3180134049322
S1135F700C942BE01194013E351C711C19D00021A6
S1135F8006980A1C059CA0470890013011D008A867
S1135F90017814AACB080898D418072303400121D8
S1135FA0247A9940013E214203D0119D0135119577
S1135FB0E2E7119E002E05D1069808990122059B5F
S1135FC0984722E5049B089998190490002D03DB57
S1135FD006980122059DA8470A9901310A9114E502
S1135FE0002C00D111E5079A032A00D90DE5101CF5
S1135FF0FCF734FC070A02076D4610214A5B228035
S113600003E50498206000E568461026335C23709D
S1136010FBE401270B97F8E40127F6E40021069836
S11360200222059DA8470A99002805D0002928D1F5
